:1000000001C0D5C0112480914000882369F0282FB9
:1000100030E083FD03C02D7F232B31F4809340001B
:100020008CBB80E0B3D0ECC0A895019A099A81E01E
:100030008093E205809182128370813061F587E5BB
:1000400094E0809308089093090881E080930B085E
:1000500083E0809307081092050880EC80930608DF
:100060008BE094D0269A8DE08150C1F4A8950DE9DB
:1000700083E0D82E7ED08134E9F47BD0182F8FD046
:1000800081E0123821F089E0113809F083E06AD06C
:1000900080E168D0EFCF8CE695E0D3CF369A2EEC96
:1000A00036E5A8959091040897FDE1CF21503109DC
:1000B000C1F7DACF823431F414E15BD01150E9F7A3
:1000C0006ED0E6CF853431F454D053D052D051D0D5
:1000D00050D0F6CF853529F44CD0C82F4AD0D82F30
:1000E000EFCF8635A9F28436B9F443D042D0182F29
:1000F00040D0863479F4D0583CD088832196115072
:10010000D9F74DD004BFD0920010809102108370B7
:10011000E1F7BECFDC5EF0CF843791F42AD029D04E
:10012000182F27D0F82E3BD086E4F81207C0D058FD
:100130008881219617D01150D9F7AACFDC5EF8CF6D
:10014000853751F42CD0809100110CD08091011191
:1001500009D0809102119BCF813509F0B1CF81E0A8
:1001600015D0AECF9091040895FFFCCF8093020884
:1001700008958091040887FFFCCF90910108809139
:10018000000892FD01C0A895369A0895909101014A
:1001900090FDFCCF98ED94BF809300010895E9DFB6
:1001A000803219F081E0F2DFFFCF84E1DBCF6830ED
:1001B00048F48DE984BF6093001080910210837031
:0A01C000E1F70895FC014083089563
:0201FE000109F5
:00000001FF
